{"abi":[{"type":"function","name":"BPS","inputs":[],"outputs":[{"name":"","type":"uint256","internalType":"uint256"}],"stateMutability":"view"},{"type":"function","name":"MAX_FEE","inputs":[],"outputs":[{"name":"","type":"uint256","internalType":"uint256"}],"stateMutability":"view"},{"type":"function","name":"MIN_FEE","inputs":[],"outputs":[{"name":"","type":"uint256","internalType":"uint256"}],"stateMutability":"view"},{"type":"function","name":"WAD","inputs":[],"outputs":[{"name":"","type":"uint256","internalType":"uint256"}],"stateMutability":"view"},{"type":"function","name":"afterInitialize","inputs":[{"name":"initialX","type":"uint256","internalType":"uint256"},{"name":"initialY","type":"uint256","internalType":"uint256"}],"outputs":[{"name":"bidFee","type":"uint256","internalType":"uint256"},{"name":"askFee","type":"uint256","internalType":"uint256"}],"stateMutability":"pure"},{"type":"function","name":"afterSwap","inputs":[{"name":"trade","type":"tuple","internalType":"struct TradeInfo","components":[{"name":"isBuy","type":"bool","internalType":"bool"},{"name":"amountX","type":"uint256","internalType":"uint256"},{"name":"amountY","type":"uint256","internalType":"uint256"},{"name":"timestamp","type":"uint256","internalType":"uint256"},{"name":"reserveX","type":"uint256","internalType":"uint256"},{"name":"reserveY","type":"uint256","internalType":"uint256"}]}],"outputs":[{"name":"bidFee","type":"uint256","internalType":"uint256"},{"name":"askFee","type":"uint256","internalType":"uint256"}],"stateMutability":"pure"},{"type":"function","name":"getFeeStructure","inputs":[{"name":"trade","type":"tuple","internalType":"struct TradeInfo","components":[{"name":"isBuy","type":"bool","internalType":"bool"},{"name":"amountX","type":"uint256","internalType":"uint256"},{"name":"amountY","type":"uint256","internalType":"uint256"},{"name":"timestamp","type":"uint256","internalType":"uint256"},{"name":"reserveX","type":"uint256","internalType":"uint256"},{"name":"reserveY","type":"uint256","internalType":"uint256"}]}],"outputs":[{"name":"fs","type":"tuple","internalType":"struct FeeStructure","components":[{"name":"bidTiers","type":"tuple[3]","internalType":"struct FeeTier[3]","components":[{"name":"threshold","type":"uint256","internalType":"uint256"},{"name":"fee","type":"uint256","internalType":"uint256"}]},{"name":"askTiers","type":"tuple[3]","internalType":"struct FeeTier[3]","components":[{"name":"threshold","type":"uint256","internalType":"uint256"},{"name":"fee","type":"uint256","internalType":"uint256"}]},{"name":"bidTierCount","type":"uint8","internalType":"uint8"},{"name":"askTierCount","type":"uint8","internalType":"uint8"}]}],"stateMutability":"pure"},{"type":"function","name":"getName","inputs":[],"outputs":[{"name":"","type":"string","internalType":"string"}],"stateMutability":"pure"},{"type":"function","name":"slots","inputs":[{"name":"","type":"uint256","internalType":"uint256"}],"outputs":[{"name":"","type":"uint256","internalType":"uint256"}],"stateMutability":"view"},{"type":"function","name":"supportsFeeStructure","inputs":[],"outputs":[{"name":"","type":"bool","internalType":"bool"}],"stateMutability":"pure"}],"bytecode":{"object":"0x608060405234801561001057600080fd5b50610524806100206000396000f3fe608060405234801561001057600080fd5b506004361061009e5760003560e01c806376c7a3c71161006657806376c7a3c71461012d578063837aef4714610135578063bc063e1a1461015d578063c2babb5714610165578063cfa144e31461017857600080fd5b806317d7de7c146100a3578063249d39e9146100e1578063387dd9e9146100fc5780635c8ac34f1461010f5780636a1460241461011e575b600080fd5b60408051808201825260138152720546965726564466565735f33305f32305f313606c1b602082015290516100d89190610387565b60405180910390f35b6100ee655af3107a400081565b6040519081526020016100d8565b6100ee61010a3660046103d6565b610198565b604051600181526020016100d8565b6100ee670de0b6b3a764000081565b6100ee600081565b6101486101433660046103ef565b6101af565b604080519283526020830191909152016100d8565b6100ee6101d1565b610148610173366004610411565b6101e7565b61018b610186366004610411565b610207565b6040516100d8919061045e565b600081602081106101a857600080fd5b0154905081565b6000806101bc601e6102cb565b6101c6601e6102cb565b915091509250929050565b6101e4600a670de0b6b3a76400006104a7565b81565b6000806101f4601e6102cb565b6101fe601e6102cb565b91509150915091565b61020f61031a565b61021b6000601e6102e3565b81515261023b610234670de0b6b3a764000060646104c9565b60146102e3565b81516020015261025f610258670de0b6b3a76400006103e86104c9565b600a6102e3565b8151600260200201526003604082015261027b6000601e6102e3565b602082015152610297610234670de0b6b3a764000060646104c9565b60208281015101526102b6610258670de0b6b3a76400006103e86104c9565b60208201516040015260036060820152919050565b60006102dd655af3107a4000836104c9565b92915050565b60408051808201909152600080825260208201526040518060400160405280848152602001610311846102cb565b90529392505050565b604051806080016040528061032d61034e565b815260200161033a61034e565b815260006020820181905260409091015290565b60405180606001604052806003905b604080518082019091526000808252602082015281526020019060019003908161035d5790505090565b60006020808352835180602085015260005b818110156103b557858101830151858201604001528201610399565b506000604082860101526040601f19601f8301168501019250505092915050565b6000602082840312156103e857600080fd5b5035919050565b6000806040838503121561040257600080fd5b50508035926020909101359150565b600060c0828403121561042357600080fd5b50919050565b8060005b600381101561045857815180518552602090810151818601526040909401939091019060010161042d565b50505050565b60006101c082019050610472828451610429565b602083015161048460c0840182610429565b5060ff60408401511661018083015260ff6060840151166101a083015292915050565b6000826104c457634e487b7160e01b600052601260045260246000fd5b500490565b80820281158282048414176102dd57634e487b7160e01b600052601160045260246000fdfea2646970667358221220f37d04b65c8d3ff84d5d1e5ee91bfc1413dcb8c00156e15af968303ab8513e8e64736f6c63430008180033","linkReferences":{}},"methodIdentifiers":{"BPS()":"249d39e9","MAX_FEE()":"bc063e1a","MIN_FEE()":"76c7a3c7","WAD()":"6a146024","afterInitialize(uint256,uint256)":"837aef47","afterSwap((bool,uint256,uint256,uint256,uint256,uint256))":"c2babb57","getFeeStructure((bool,uint256,uint256,uint256,uint256,uint256))":"cfa144e3","getName()":"17d7de7c","slots(uint256)":"387dd9e9","supportsFeeStructure()":"5c8ac34f"},"id":24}