{"abi":[{"type":"function","name":"BPS","inputs":[],"outputs":[{"name":"","type":"uint256","internalType":"uint256"}],"stateMutability":"view"},{"type":"function","name":"FEE","inputs":[],"outputs":[{"name":"","type":"uint256","internalType":"uint256"}],"stateMutability":"view"},{"type":"function","name":"MAX_FEE","inputs":[],"outputs":[{"name":"","type":"uint256","internalType":"uint256"}],"stateMutability":"view"},{"type":"function","name":"MIN_FEE","inputs":[],"outputs":[{"name":"","type":"uint256","internalType":"uint256"}],"stateMutability":"view"},{"type":"function","name":"WAD","inputs":[],"outputs":[{"name":"","type":"uint256","internalType":"uint256"}],"stateMutability":"view"},{"type":"function","name":"afterInitialize","inputs":[{"name":"","type":"uint256","internalType":"uint256"},{"name":"","type":"uint256","internalType":"uint256"}],"outputs":[{"name":"bidFee","type":"uint256","internalType":"uint256"},{"name":"askFee","type":"uint256","internalType":"uint256"}],"stateMutability":"pure"},{"type":"function","name":"afterSwap","inputs":[{"name":"","type":"tuple","internalType":"struct TradeInfo","components":[{"name":"isBuy","type":"bool","internalType":"bool"},{"name":"amountX","type":"uint256","internalType":"uint256"},{"name":"amountY","type":"uint256","internalType":"uint256"},{"name":"timestamp","type":"uint256","internalType":"uint256"},{"name":"reserveX","type":"uint256","internalType":"uint256"},{"name":"reserveY","type":"uint256","internalType":"uint256"}]}],"outputs":[{"name":"bidFee","type":"uint256","internalType":"uint256"},{"name":"askFee","type":"uint256","internalType":"uint256"}],"stateMutability":"pure"},{"type":"function","name":"getFeeStructure","inputs":[{"name":"trade","type":"tuple","internalType":"struct TradeInfo","components":[{"name":"isBuy","type":"bool","internalType":"bool"},{"name":"amountX","type":"uint256","internalType":"uint256"},{"name":"amountY","type":"uint256","internalType":"uint256"},{"name":"timestamp","type":"uint256","internalType":"uint256"},{"name":"reserveX","type":"uint256","internalType":"uint256"},{"name":"reserveY","type":"uint256","internalType":"uint256"}]}],"outputs":[{"name":"","type":"tuple","internalType":"struct FeeStructure","components":[{"name":"bidTiers","type":"tuple[3]","internalType":"struct FeeTier[3]","components":[{"name":"threshold","type":"uint256","internalType":"uint256"},{"name":"fee","type":"uint256","internalType":"uint256"}]},{"name":"askTiers","type":"tuple[3]","internalType":"struct FeeTier[3]","components":[{"name":"threshold","type":"uint256","internalType":"uint256"},{"name":"fee","type":"uint256","internalType":"uint256"}]},{"name":"bidTierCount","type":"uint8","internalType":"uint8"},{"name":"askTierCount","type":"uint8","internalType":"uint8"}]}],"stateMutability":"nonpayable"},{"type":"function","name":"getName","inputs":[],"outputs":[{"name":"","type":"string","internalType":"string"}],"stateMutability":"pure"},{"type":"function","name":"slots","inputs":[{"name":"","type":"uint256","internalType":"uint256"}],"outputs":[{"name":"","type":"uint256","internalType":"uint256"}],"stateMutability":"view"},{"type":"function","name":"supportsFeeStructure","inputs":[],"outputs":[{"name":"","type":"bool","internalType":"bool"}],"stateMutability":"view"}],"bytecode":{"object":"0x608060405234801561001057600080fd5b506104b6806100206000396000f3fe608060405234801561001057600080fd5b50600436106100a95760003560e01c806376c7a3c71161007157806376c7a3c714610132578063837aef471461013a578063bc063e1a14610162578063c2babb571461016a578063c57981b51461017d578063cfa144e31461018557600080fd5b806317d7de7c146100ae578063249d39e9146100e6578063387dd9e9146101015780635c8ac34f146101145780636a14602414610123575b600080fd5b604080518082018252600d81526c56616e696c6c615f333062707360981b602082015290516100dd9190610313565b60405180910390f35b6100f3655af3107a400081565b6040519081526020016100dd565b6100f361010f366004610362565b6101a5565b604051600081526020016100dd565b6100f3670de0b6b3a764000081565b6100f3600081565b61014d61014836600461037b565b6101bc565b604080519283526020830191909152016100dd565b6100f36101ec565b61014d61017836600461039d565b610202565b6100f3610230565b61019861019336600461039d565b610241565b6040516100dd91906103ea565b600081602081106101b557600080fd5b0154905081565b6000806101d0655af3107a4000601e610433565b6101e1655af3107a4000601e610433565b915091509250929050565b6101ff600a670de0b6b3a764000061045e565b81565b600080610216655af3107a4000601e610433565b610227655af3107a4000601e610433565b91509150915091565b6101ff655af3107a4000601e610433565b6102496102a6565b60405162461bcd60e51b815260206004820152602860248201527f537472617465677920646f6573206e6f7420737570706f727420666565207374604482015267727563747572657360c01b606482015260840160405180910390fd5b60405180608001604052806102b96102da565b81526020016102c66102da565b815260006020820181905260409091015290565b60405180606001604052806003905b60408051808201909152600080825260208201528152602001906001900390816102e95790505090565b60006020808352835180602085015260005b8181101561034157858101830151858201604001528201610325565b506000604082860101526040601f19601f8301168501019250505092915050565b60006020828403121561037457600080fd5b5035919050565b6000806040838503121561038e57600080fd5b50508035926020909101359150565b600060c082840312156103af57600080fd5b50919050565b8060005b60038110156103e45781518051855260209081015181860152604090940193909101906001016103b9565b50505050565b60006101c0820190506103fe8284516103b5565b602083015161041060c08401826103b5565b5060ff60408401511661018083015260ff6060840151166101a083015292915050565b808202811582820484141761045857634e487b7160e01b600052601160045260246000fd5b92915050565b60008261047b57634e487b7160e01b600052601260045260246000fd5b50049056fea264697066735822122092adb55312f0d0bbbc01b81562556a5c18804adf2c000c73af1d2022026a4efc64736f6c63430008180033","linkReferences":{}},"methodIdentifiers":{"BPS()":"249d39e9","FEE()":"c57981b5","MAX_FEE()":"bc063e1a","MIN_FEE()":"76c7a3c7","WAD()":"6a146024","afterInitialize(uint256,uint256)":"837aef47","afterSwap((bool,uint256,uint256,uint256,uint256,uint256))":"c2babb57","getFeeStructure((bool,uint256,uint256,uint256,uint256,uint256))":"cfa144e3","getName()":"17d7de7c","slots(uint256)":"387dd9e9","supportsFeeStructure()":"5c8ac34f"},"id":23}